{
  "contractName": "Lottery",
  "abi": [
    {
      "inputs": [],
      "stateMutability": "nonpayable",
      "type": "constructor"
    },
    {
      "inputs": [],
      "name": "drawEndTime",
      "outputs": [
        {
          "internalType": "uint256",
          "name": "",
          "type": "uint256"
        }
      ],
      "stateMutability": "view",
      "type": "function"
    },
    {
      "inputs": [],
      "name": "drawStartTime",
      "outputs": [
        {
          "internalType": "uint256",
          "name": "",
          "type": "uint256"
        }
      ],
      "stateMutability": "view",
      "type": "function"
    },
    {
      "inputs": [],
      "name": "lotteryBet",
      "outputs": [
        {
          "internalType": "uint256",
          "name": "",
          "type": "uint256"
        }
      ],
      "stateMutability": "view",
      "type": "function"
    },
    {
      "inputs": [],
      "name": "rewardRate",
      "outputs": [
        {
          "internalType": "uint256",
          "name": "",
          "type": "uint256"
        }
      ],
      "stateMutability": "view",
      "type": "function"
    },
    {
      "inputs": [],
      "name": "roundNum",
      "outputs": [
        {
          "internalType": "uint256",
          "name": "",
          "type": "uint256"
        }
      ],
      "stateMutability": "view",
      "type": "function"
    },
    {
      "inputs": [],
      "name": "winningNum",
      "outputs": [
        {
          "internalType": "uint256",
          "name": "",
          "type": "uint256"
        }
      ],
      "stateMutability": "view",
      "type": "function"
    },
    {
      "inputs": [],
      "name": "winningReward",
      "outputs": [
        {
          "internalType": "uint256",
          "name": "",
          "type": "uint256"
        }
      ],
      "stateMutability": "view",
      "type": "function"
    },
    {
      "inputs": [],
      "name": "throwIn",
      "outputs": [],
      "stateMutability": "payable",
      "type": "function"
    },
    {
      "inputs": [],
      "name": "draw",
      "outputs": [],
      "stateMutability": "nonpayable",
      "type": "function"
    },
    {
      "inputs": [],
      "name": "getBalance",
      "outputs": [
        {
          "internalType": "uint256",
          "name": "",
          "type": "uint256"
        }
      ],
      "stateMutability": "view",
      "type": "function"
    },
    {
      "inputs": [],
      "name": "getWinner",
      "outputs": [
        {
          "internalType": "address",
          "name": "",
          "type": "address"
        }
      ],
      "stateMutability": "view",
      "type": "function"
    },
    {
      "inputs": [],
      "name": "getManager",
      "outputs": [
        {
          "internalType": "address",
          "name": "",
          "type": "address"
        }
      ],
      "stateMutability": "view",
      "type": "function"
    },
    {
      "inputs": [],
      "name": "getLotteryPlayers",
      "outputs": [
        {
          "internalType": "address payable[]",
          "name": "",
          "type": "address[]"
        }
      ],
      "stateMutability": "view",
      "type": "function"
    },
    {
      "inputs": [],
      "name": "getPlayersNum",
      "outputs": [
        {
          "internalType": "uint256",
          "name": "",
          "type": "uint256"
        }
      ],
      "stateMutability": "view",
      "type": "function"
    },
    {
      "inputs": [],
      "name": "refund",
      "outputs": [],
      "stateMutability": "nonpayable",
      "type": "function"
    }
  ],
  "bytecode": "0x608060405234801561001057600080fd5b50336000806101000a81548173ffffffffffffffffffffffffffffffffffffffff021916908373ffffffffffffffffffffffffffffffffffffffff1602179055506050600581905550670de0b6b3a7640000600781905550426008819055506107084261007d9190610088565b600981905550610117565b6000610093826100de565b915061009e836100de565b9250827fffffffffffffffffffffffffffffffffffffffffffffffffffffffffffffffff038211156100d3576100d26100e8565b5b828201905092915050565b6000819050919050565b7f4e487b7100000000000000000000000000000000000000000000000000000000600052601160045260246000fd5b610e87806101266000396000f3fe6080604052600436106100e85760003560e01c80637b0a47ee1161008a578063d14de7ae11610059578063d14de7ae1461027d578063d5009584146102a8578063e9b57f0d146102d3578063fca6ec6a146102fe576100e8565b80637b0a47ee146101f25780637e6dce9c1461021d5780638e7ea5b21461022757806396ace17914610252576100e8565b806312065fe0116100c657806312065fe01461015a5780634377bba314610185578063590e1ae3146101b05780636ddc33b8146101c7576100e8565b80630a7fa049146100ed5780630eecae2114610118578063119b22b31461012f575b600080fd5b3480156100f957600080fd5b50610102610329565b60405161010f9190610b5a565b60405180910390f35b34801561012457600080fd5b5061012d610336565b005b34801561013b57600080fd5b50610144610651565b6040516101519190610b5a565b60405180910390f35b34801561016657600080fd5b5061016f610657565b60405161017c9190610b5a565b60405180910390f35b34801561019157600080fd5b5061019a61065f565b6040516101a79190610b5a565b60405180910390f35b3480156101bc57600080fd5b506101c5610665565b005b3480156101d357600080fd5b506101dc6107f0565b6040516101e99190610b5a565b60405180910390f35b3480156101fe57600080fd5b506102076107f6565b6040516102149190610b5a565b60405180910390f35b6102256107fc565b005b34801561023357600080fd5b5061023c61086f565b6040516102499190610add565b60405180910390f35b34801561025e57600080fd5b50610267610899565b6040516102749190610b5a565b60405180910390f35b34801561028957600080fd5b5061029261089f565b60405161029f9190610af8565b60405180910390f35b3480156102b457600080fd5b506102bd61092d565b6040516102ca9190610add565b60405180910390f35b3480156102df57600080fd5b506102e8610956565b6040516102f59190610b5a565b60405180910390f35b34801561030a57600080fd5b5061031361095c565b6040516103209190610b5a565b60405180910390f35b6000600280549050905090565b60008054906101000a900473ffffffffffffffffffffffffffffffffffffffff1673ffffffffffffffffffffffffffffffffffffffff163373ffffffffffffffffffffffffffffffffffffffff161461038e57600080fd5b600060028054905014156103d7576040517f08c379a00000000000000000000000000000000000000000000000000000000081526004016103ce90610b1a565b60405180910390fd5b60085442101580156103ea575060095442105b610429576040517f08c379a000000000000000000000000000000000000000000000000000000000815260040161042090610b3a565b60405180910390fd5b6000424460028054905060405160200161044593929190610aa0565b60405160208183030381529060405290506000818051906020012090506002805490508160001c6104769190610d41565b60038190555060026003548154811061049257610491610dd0565b5b9060005260206000200160009054906101000a900473ffffffffffffffffffffffffffffffffffffffff16600160006101000a81548173ffffffffffffffffffffffffffffffffffffffff021916908373ffffffffffffffffffffffffffffffffffffffff16021790555060646005544761050d9190610c46565b6105179190610c15565b600681905550600160009054906101000a900473ffffffffffffffffffffffffffffffffffffffff1673ffffffffffffffffffffffffffffffffffffffff166108fc6006549081150290604051600060405180830381858888f19350505050158015610587573d6000803e3d6000fd5b5060008054906101000a900473ffffffffffffffffffffffffffffffffffffffff1673ffffffffffffffffffffffffffffffffffffffff166108fc479081150290604051600060405180830381858888f193505050501580156105ee573d6000803e3d6000fd5b506004600081548092919061060290610cee565b9190505550620151806008600082825461061c9190610bbf565b9250508190555062015180600960008282546106389190610bbf565b925050819055506002600061064d9190610962565b5050565b60045481565b600047905090565b60065481565b60008054906101000a900473ffffffffffffffffffffffffffffffffffffffff1673ffffffffffffffffffffffffffffffffffffffff163373ffffffffffffffffffffffffffffffffffffffff16146106bd57600080fd5b600060028054905014156106d057600080fd5b6009544210156106df57600080fd5b6000600280549050905060005b8181101561078e576002818154811061070857610707610dd0565b5b9060005260206000200160009054906101000a900473ffffffffffffffffffffffffffffffffffffffff1673ffffffffffffffffffffffffffffffffffffffff166108fc6007549081150290604051600060405180830381858888f1935050505015801561077a573d6000803e3d6000fd5b50808061078690610cee565b9150506106ec565b50600460008154809291906107a290610cee565b919050555062015180600860008282546107bc9190610bbf565b9250508190555062015180600960008282546107d89190610bbf565b92505081905550600260006107ed9190610962565b50565b60075481565b60055481565b600754341461080a57600080fd5b6002339080600181540180825580915050600190039060005260206000200160009091909190916101000a81548173ffffffffffffffffffffffffffffffffffffffff021916908373ffffffffffffffffffffffffffffffffffffffff160217905550565b6000600160009054906101000a900473ffffffffffffffffffffffffffffffffffffffff16905090565b60035481565b6060600280548060200260200160405190810160405280929190818152602001828054801561092357602002820191906000526020600020905b8160009054906101000a900473ffffffffffffffffffffffffffffffffffffffff1673ffffffffffffffffffffffffffffffffffffffff16815260200190600101908083116108d9575b5050505050905090565b60008060009054906101000a900473ffffffffffffffffffffffffffffffffffffffff16905090565b60095481565b60085481565b50805460008255906000526020600020908101906109809190610983565b50565b5b8082111561099c576000816000905550600101610984565b5090565b60006109ac83836109b8565b60208301905092915050565b6109c181610cb2565b82525050565b6109d081610ca0565b82525050565b60006109e182610b85565b6109eb8185610b9d565b93506109f683610b75565b8060005b83811015610a27578151610a0e88826109a0565b9750610a1983610b90565b9250506001810190506109fa565b5085935050505092915050565b6000610a41601083610bae565b9150610a4c82610dff565b602082019050919050565b6000610a64601583610bae565b9150610a6f82610e28565b602082019050919050565b610a8381610ce4565b82525050565b610a9a610a9582610ce4565b610d37565b82525050565b6000610aac8286610a89565b602082019150610abc8285610a89565b602082019150610acc8284610a89565b602082019150819050949350505050565b6000602082019050610af260008301846109c7565b92915050565b60006020820190508181036000830152610b1281846109d6565b905092915050565b60006020820190508181036000830152610b3381610a34565b9050919050565b60006020820190508181036000830152610b5381610a57565b9050919050565b6000602082019050610b6f6000830184610a7a565b92915050565b6000819050602082019050919050565b600081519050919050565b6000602082019050919050565b600082825260208201905092915050565b600082825260208201905092915050565b6000610bca82610ce4565b9150610bd583610ce4565b9250827fffffffffffffffffffffffffffffffffffffffffffffffffffffffffffffffff03821115610c0a57610c09610d72565b5b828201905092915050565b6000610c2082610ce4565b9150610c2b83610ce4565b925082610c3b57610c3a610da1565b5b828204905092915050565b6000610c5182610ce4565b9150610c5c83610ce4565b9250817fffffffffffffffffffffffffffffffffffffffffffffffffffffffffffffffff0483118215151615610c9557610c94610d72565b5b828202905092915050565b6000610cab82610cc4565b9050919050565b6000610cbd82610cc4565b9050919050565b600073ffffffffffffffffffffffffffffffffffffffff82169050919050565b6000819050919050565b6000610cf982610ce4565b91507fffffffffffffffffffffffffffffffffffffffffffffffffffffffffffffffff821415610d2c57610d2b610d72565b5b600182019050919050565b6000819050919050565b6000610d4c82610ce4565b9150610d5783610ce4565b925082610d6757610d66610da1565b5b828206905092915050565b7f4e487b7100000000000000000000000000000000000000000000000000000000600052601160045260246000fd5b7f4e487b7100000000000000000000000000000000000000000000000000000000600052601260045260246000fd5b7f4e487b7100000000000000000000000000000000000000000000000000000000600052603260045260246000fd5b7f4e6f20506c617965727320666f756e6400000000000000000000000000000000600082015250565b7f4c6f747465722074696d6520696e636f7272656374000000000000000000000060008201525056fea26469706673582212206b003fd94eeffa4aa0a82c432831cfc4103d4e20f78cfd13749b9ee10673566d64736f6c63430008060033",
  "immutableReferences": {},
  "source": "// SPDX-License-Identifier: MIT\n\npragma solidity >0.5.0 <0.9.0;\n\ncontract Lottery {\n\t//administrator address\n    address payable manager;\n    // Winner address\n    address payable winner;\n    //Beter address collection\n    address payable [] lotteryPlayers;\n\t//winner's number\n    uint public winningNum;\n    // lottery period\n    uint public roundNum;\n    // Winners' winning ratio (example: when the winnings ratio is 80%, the value is 80.)\n    uint public rewardRate;\n    //The specific amount of the winner's bonus\n    uint public winningReward;\n    //Amount of each bet\n    uint public lotteryBet;\n    // Every time the administrator can draw the starting point\n    uint public drawStartTime;\n    // Each time the administrator can draw the end of the time\n    uint public drawEndTime;\n    constructor()  {\n    \t// Create a contractor automatically for the administrator\n        manager = payable(msg.sender);\n        //80% of the Ethereum in the prize pool to the winners\n        rewardRate = 80;\n        // Each time limit 1 ether\n        lotteryBet = 1 ether;\n        drawStartTime = block.timestamp;\n        //Allow the draw time to be 30 minutes\n        drawEndTime = block.timestamp +30 minutes;\n    }\n\n function throwIn() public payable{\n \t// Guarantee the lottery bet amount is the rated amount\n    require(msg.value == lotteryBet);\n    //You can only bet before the draw time\n    \n    // Add the lottery's address to the array\n    lotteryPlayers.push(payable(msg.sender));\n}\n\n// decorator to ensure that only administrators have permission to operate\n modifier managerLimit {\n    require(msg.sender == manager);\n    _;\n}\n\n// transaction, used for testing\n//event test(uint,uint);\nfunction draw() public managerLimit  {\n\t//Ensure that someone is betting on the current order\n    require(lotteryPlayers.length != 0,\"No Players found\");\n    // Make sure that within the allowed lottery period\n    require(block.timestamp >= drawStartTime && block.timestamp < drawEndTime,\"Lotter time incorrect\");\n    // Use the current block time stamp, mining difficulty and the number of betting lottery players to take random values\n    bytes memory randomInfo = abi.encodePacked(block.timestamp,block.difficulty,lotteryPlayers.length); \n    bytes32 randomHash =keccak256(randomInfo);\n    // Use the random value to get the index of the winner in the array\n    winningNum = uint(randomHash)%lotteryPlayers.length;\n    // Determine the winner address\n    winner=lotteryPlayers[winningNum];\n    //According to the total amount of Ethereum in the current session, determine the bonus that the winner can receive.\n    winningReward = address(this).balance*rewardRate/100;\n    //Transfer to the winner\n    winner.transfer(winningReward);\n    // used for testing\n    //emit test(reward,address(this).balance);\n    // Pump the administrator\n    manager.transfer(address(this).balance);\n    // Lottery period +1\n    roundNum++;\n    //The next start and end time of the draw will increase by 1 day.\n    drawStartTime+=1 days;\n    drawEndTime+=1 days;\n    // Clear this bettor array\n    delete lotteryPlayers;\n}\n\n\n//Return the total amount of Ethereum in the current prize pool\nfunction getBalance()public view returns(uint){\n    return address(this).balance;\n}\n// Return to the winning address of the end of the lottery\nfunction getWinner()public view returns(address){\n    return winner;\n}\n// Return to the administrator's address\nfunction getManager()public view returns(address){\n    return manager;\n}\n//Return the current lottery address collection that is participating in the bet\nfunction getLotteryPlayers() public view returns(address payable [] memory){\n    return lotteryPlayers;\n}\n//Return the number of lottery players currently participating in the bet\nfunction getPlayersNum() public view returns(uint){\n    return lotteryPlayers.length;\n}\n\n\n//Only administrators can issue refunds\nfunction refund()public managerLimit{\n    //Make sure someone is involved in the bet at this time\n    require(lotteryPlayers.length != 0);\n    //The refund operation can only be performed after the draw end time\n    require(block.timestamp>=drawEndTime);\n    uint lenLotteryPlayers = lotteryPlayers.length;\n    // Refund all participating bettors in this round, the amount is the rated amount\n    for(uint i = 0; i<lenLotteryPlayers;i++){\n        lotteryPlayers[i].transfer(lotteryBet);\n    }\n    // Because of the flow, the number of periods +1\n    roundNum++;\n    //Because of the flow, the next draw start time and the draw end time will increase by one day.\n    drawStartTime+=1 days;\n    drawEndTime+=1 days;\n    // Clear the participating bettor collection\n    delete lotteryPlayers;   \n}\n\n}",
  "sourcePath": "/var/www/html/blaze-coin/test-contract/contracts/Lottery.sol",
  "compiler": {
    "name": "solc",
    "version": "0.8.6+commit.11564f7e.Emscripten.clang"
  },
  "schemaVersion": "3.4.1",
  "updatedAt": "2021-08-06T16:38:22.359Z",
  "devdoc": {
    "kind": "dev",
    "methods": {},
    "version": 1
  },
  "userdoc": {
    "kind": "user",
    "methods": {},
    "version": 1
  }
}