{
  "contractName": "PALToken",
  "abi": [
    {
      "inputs": [],
      "stateMutability": "nonpayable",
      "type": "constructor"
    },
    {
      "anonymous": false,
      "inputs": [
        {
          "indexed": false,
          "internalType": "address",
          "name": "tokenOwner",
          "type": "address"
        },
        {
          "indexed": false,
          "internalType": "address",
          "name": "spender",
          "type": "address"
        },
        {
          "indexed": false,
          "internalType": "uint256",
          "name": "tokens",
          "type": "uint256"
        }
      ],
      "name": "Approval",
      "type": "event"
    },
    {
      "anonymous": false,
      "inputs": [
        {
          "indexed": true,
          "internalType": "address",
          "name": "from",
          "type": "address"
        },
        {
          "indexed": true,
          "internalType": "address",
          "name": "to",
          "type": "address"
        },
        {
          "indexed": false,
          "internalType": "uint256",
          "name": "tokens",
          "type": "uint256"
        }
      ],
      "name": "Transfer",
      "type": "event"
    },
    {
      "inputs": [],
      "name": "_totalSupply",
      "outputs": [
        {
          "internalType": "uint256",
          "name": "",
          "type": "uint256"
        }
      ],
      "stateMutability": "view",
      "type": "function"
    },
    {
      "inputs": [],
      "name": "decimals",
      "outputs": [
        {
          "internalType": "uint8",
          "name": "",
          "type": "uint8"
        }
      ],
      "stateMutability": "view",
      "type": "function"
    },
    {
      "inputs": [],
      "name": "name",
      "outputs": [
        {
          "internalType": "string",
          "name": "",
          "type": "string"
        }
      ],
      "stateMutability": "view",
      "type": "function"
    },
    {
      "inputs": [
        {
          "internalType": "uint256",
          "name": "a",
          "type": "uint256"
        },
        {
          "internalType": "uint256",
          "name": "b",
          "type": "uint256"
        }
      ],
      "name": "safeAdd",
      "outputs": [
        {
          "internalType": "uint256",
          "name": "c",
          "type": "uint256"
        }
      ],
      "stateMutability": "pure",
      "type": "function"
    },
    {
      "inputs": [
        {
          "internalType": "uint256",
          "name": "a",
          "type": "uint256"
        },
        {
          "internalType": "uint256",
          "name": "b",
          "type": "uint256"
        }
      ],
      "name": "safeDiv",
      "outputs": [
        {
          "internalType": "uint256",
          "name": "c",
          "type": "uint256"
        }
      ],
      "stateMutability": "pure",
      "type": "function"
    },
    {
      "inputs": [
        {
          "internalType": "uint256",
          "name": "a",
          "type": "uint256"
        },
        {
          "internalType": "uint256",
          "name": "b",
          "type": "uint256"
        }
      ],
      "name": "safeMul",
      "outputs": [
        {
          "internalType": "uint256",
          "name": "c",
          "type": "uint256"
        }
      ],
      "stateMutability": "pure",
      "type": "function"
    },
    {
      "inputs": [
        {
          "internalType": "uint256",
          "name": "a",
          "type": "uint256"
        },
        {
          "internalType": "uint256",
          "name": "b",
          "type": "uint256"
        }
      ],
      "name": "safeSub",
      "outputs": [
        {
          "internalType": "uint256",
          "name": "c",
          "type": "uint256"
        }
      ],
      "stateMutability": "pure",
      "type": "function"
    },
    {
      "inputs": [],
      "name": "symbol",
      "outputs": [
        {
          "internalType": "string",
          "name": "",
          "type": "string"
        }
      ],
      "stateMutability": "view",
      "type": "function"
    },
    {
      "inputs": [],
      "name": "tokenOwner",
      "outputs": [
        {
          "internalType": "address",
          "name": "",
          "type": "address"
        }
      ],
      "stateMutability": "view",
      "type": "function"
    },
    {
      "inputs": [],
      "name": "totalSupply",
      "outputs": [
        {
          "internalType": "uint256",
          "name": "",
          "type": "uint256"
        }
      ],
      "stateMutability": "view",
      "type": "function"
    },
    {
      "inputs": [
        {
          "internalType": "address",
          "name": "tokenOwner",
          "type": "address"
        }
      ],
      "name": "balanceOf",
      "outputs": [
        {
          "internalType": "uint256",
          "name": "balance",
          "type": "uint256"
        }
      ],
      "stateMutability": "view",
      "type": "function"
    },
    {
      "inputs": [
        {
          "internalType": "address",
          "name": "to",
          "type": "address"
        },
        {
          "internalType": "uint256",
          "name": "tokens",
          "type": "uint256"
        }
      ],
      "name": "transfer",
      "outputs": [
        {
          "internalType": "bool",
          "name": "success",
          "type": "bool"
        }
      ],
      "stateMutability": "nonpayable",
      "type": "function"
    },
    {
      "inputs": [
        {
          "internalType": "address",
          "name": "spender",
          "type": "address"
        },
        {
          "internalType": "uint256",
          "name": "tokens",
          "type": "uint256"
        }
      ],
      "name": "approve",
      "outputs": [
        {
          "internalType": "bool",
          "name": "success",
          "type": "bool"
        }
      ],
      "stateMutability": "nonpayable",
      "type": "function"
    },
    {
      "inputs": [
        {
          "internalType": "address",
          "name": "from",
          "type": "address"
        },
        {
          "internalType": "address",
          "name": "to",
          "type": "address"
        },
        {
          "internalType": "uint256",
          "name": "tokens",
          "type": "uint256"
        }
      ],
      "name": "transferFrom",
      "outputs": [
        {
          "internalType": "bool",
          "name": "success",
          "type": "bool"
        }
      ],
      "stateMutability": "nonpayable",
      "type": "function"
    },
    {
      "inputs": [
        {
          "internalType": "address",
          "name": "tokenOwner",
          "type": "address"
        },
        {
          "internalType": "address",
          "name": "spender",
          "type": "address"
        }
      ],
      "name": "allowance",
      "outputs": [
        {
          "internalType": "uint256",
          "name": "remaining",
          "type": "uint256"
        }
      ],
      "stateMutability": "view",
      "type": "function"
    },
    {
      "inputs": [
        {
          "internalType": "address",
          "name": "spender",
          "type": "address"
        },
        {
          "internalType": "uint256",
          "name": "tokens",
          "type": "uint256"
        },
        {
          "internalType": "bytes",
          "name": "data",
          "type": "bytes"
        }
      ],
      "name": "approveAndCall",
      "outputs": [
        {
          "internalType": "bool",
          "name": "success",
          "type": "bool"
        }
      ],
      "stateMutability": "nonpayable",
      "type": "function"
    }
  ],
  "bytecode": "0x60806040523480156200001157600080fd5b50336000806101000a81548173ffffffffffffffffffffffffffffffffffffffff021916908373ffffffffffffffffffffffffffffffffffffffff1602179055506040518060400160405280600381526020017f50414c0000000000000000000000000000000000000000000000000000000000815250600190805190602001906200009f92919062000161565b506040518060400160405280600881526020017f50414c546f6b656e00000000000000000000000000000000000000000000000081525060029080519060200190620000ed92919062000161565b506000600360006101000a81548160ff021916908360ff1602179055506305f5e100600481905550600454600560003373ffffffffffffffffffffffffffffffffffffffff1673ffffffffffffffffffffffffffffffffffffffff1681526020019081526020016000208190555062000276565b8280546200016f9062000211565b90600052602060002090601f016020900481019282620001935760008555620001df565b82601f10620001ae57805160ff1916838001178555620001df565b82800160010185558215620001df579182015b82811115620001de578251825591602001919060010190620001c1565b5b509050620001ee9190620001f2565b5090565b5b808211156200020d576000816000905550600101620001f3565b5090565b600060028204905060018216806200022a57607f821691505b6020821081141562000241576200024062000247565b5b50919050565b7f4e487b7100000000000000000000000000000000000000000000000000000000600052602260045260246000fd5b6115ff80620002866000396000f3fe608060405234801561001057600080fd5b50600436106101005760003560e01c8063a293d1e811610097578063cae9ca5111610066578063cae9ca51146102d9578063d05c78da14610309578063dd62ed3e14610339578063e6cb90131461036957610100565b8063a293d1e81461022b578063a3e676101461025b578063a9059cbb14610279578063b5931f7c146102a957610100565b8063313ce567116100d3578063313ce567146101a15780633eaaf86b146101bf57806370a08231146101dd57806395d89b411461020d57610100565b806306fdde0314610105578063095ea7b31461012357806318160ddd1461015357806323b872dd14610171575b600080fd5b61010d610399565b60405161011a91906111c5565b60405180910390f35b61013d60048036038101906101389190610f6f565b610427565b60405161014a91906111aa565b60405180910390f35b61015b6104ef565b60405161016891906111e7565b60405180910390f35b61018b60048036038101906101869190610f1c565b610543565b60405161019891906111aa565b60405180910390f35b6101a96108b9565b6040516101b69190611202565b60405180910390f35b6101c76108cc565b6040516101d491906111e7565b60405180910390f35b6101f760048036038101906101f29190610eaf565b6108d2565b60405161020491906111e7565b60405180910390f35b61021561091b565b60405161022291906111c5565b60405180910390f35b6102456004803603810190610240919061101e565b6109a9565b60405161025291906111e7565b60405180910390f35b6102636109cc565b604051610270919061110c565b60405180910390f35b610293600480360381019061028e9190610f6f565b6109f0565b6040516102a091906111aa565b60405180910390f35b6102c360048036038101906102be919061101e565b610bd7565b6040516102d091906111e7565b60405180910390f35b6102f360048036038101906102ee9190610faf565b610bf9565b60405161030091906111aa565b60405180910390f35b610323600480360381019061031e919061101e565b610d33565b60405161033091906111e7565b60405180910390f35b610353600480360381019061034e9190610edc565b610d6b565b60405161036091906111e7565b60405180910390f35b610383600480360381019061037e919061101e565b610df2565b60405161039091906111e7565b60405180910390f35b600280546103a690611457565b80601f01602080910402602001604051908101604052809291908181526020018280546103d290611457565b801561041f5780601f106103f45761010080835404028352916020019161041f565b820191906000526020600020905b81548152906001019060200180831161040257829003601f168201915b505050505081565b600081600660003373ffffffffffffffffffffffffffffffffffffffff1673ffffffffffffffffffffffffffffffffffffffff16815260200190815260200160002060008573ffffffffffffffffffffffffffffffffffffffff1673ffffffffffffffffffffffffffffffffffffffff168152602001908152602001600020819055507f8c5be1e5ebec7d5bd14f71427d1e84f3dd0314c0f7b2291e5b200ac8c7c3b9253384846040516104dd93929190611127565b60405180910390a16001905092915050565b6000600560008073ffffffffffffffffffffffffffffffffffffffff1673ffffffffffffffffffffffffffffffffffffffff1681526020019081526020016000205460045461053e919061138c565b905090565b600081600560008673ffffffffffffffffffffffffffffffffffffffff1673ffffffffffffffffffffffffffffffffffffffff1681526020019081526020016000205410158015610610575081600660008673ffffffffffffffffffffffffffffffffffffffff1673ffffffffffffffffffffffffffffffffffffffff16815260200190815260200160002060003373ffffffffffffffffffffffffffffffffffffffff1673ffffffffffffffffffffffffffffffffffffffff1681526020019081526020016000205410155b801561061c5750600082115b156108ad5761066a600560008673ffffffffffffffffffffffffffffffffffffffff1673ffffffffffffffffffffffffffffffffffffffff16815260200190815260200160002054836109a9565b600560008673ffffffffffffffffffffffffffffffffffffffff1673ffffffffffffffffffffffffffffffffffffffff16815260200190815260200160002081905550610733600660008673ffffffffffffffffffffffffffffffffffffffff1673ffffffffffffffffffffffffffffffffffffffff16815260200190815260200160002060003373ffffffffffffffffffffffffffffffffffffffff1673ffffffffffffffffffffffffffffffffffffffff16815260200190815260200160002054836109a9565b600660008673ffffffffffffffffffffffffffffffffffffffff1673ffffffffffffffffffffffffffffffffffffffff16815260200190815260200160002060003373ffffffffffffffffffffffffffffffffffffffff1673ffffffffffffffffffffffffffffffffffffffff168152602001908152602001600020819055506107fc600560008573ffffffffffffffffffffffffffffffffffffffff1673ffffffffffffffffffffffffffffffffffffffff1681526020019081526020016000205483610df2565b600560008573ffffffffffffffffffffffffffffffffffffffff1673ffffffffffffffffffffffffffffffffffffffff168152602001908152602001600020819055508273ffffffffffffffffffffffffffffffffffffffff168473ffffffffffffffffffffffffffffffffffffffff167fddf252ad1be2c89b69c2b068fc378daa952ba7f163c4a11628f55a4df523b3ef8460405161089c91906111e7565b60405180910390a3600190506108b2565b600090505b9392505050565b600360009054906101000a900460ff1681565b60045481565b6000600560008373ffffffffffffffffffffffffffffffffffffffff1673ffffffffffffffffffffffffffffffffffffffff168152602001908152602001600020549050919050565b6001805461092890611457565b80601f016020809104026020016040519081016040528092919081815260200182805461095490611457565b80156109a15780601f10610976576101008083540402835291602001916109a1565b820191906000526020600020905b81548152906001019060200180831161098457829003601f168201915b505050505081565b6000828211156109b857600080fd5b81836109c4919061138c565b905092915050565b60008054906101000a900473ffffffffffffffffffffffffffffffffffffffff1681565b600081600560003373ffffffffffffffffffffffffffffffffffffffff1673ffffffffffffffffffffffffffffffffffffffff1681526020019081526020016000205410158015610a415750600082115b15610bcc57610a8f600560003373ffffffffffffffffffffffffffffffffffffffff1673ffffffffffffffffffffffffffffffffffffffff16815260200190815260200160002054836109a9565b600560003373ffffffffffffffffffffffffffffffffffffffff1673ffffffffffffffffffffffffffffffffffffffff16815260200190815260200160002081905550610b1b600560008573ffffffffffffffffffffffffffffffffffffffff1673ffffffffffffffffffffffffffffffffffffffff1681526020019081526020016000205483610df2565b600560008573ffffffffffffffffffffffffffffffffffffffff1673ffffffffffffffffffffffffffffffffffffffff168152602001908152602001600020819055508273ffffffffffffffffffffffffffffffffffffffff163373ffffffffffffffffffffffffffffffffffffffff167fddf252ad1be2c89b69c2b068fc378daa952ba7f163c4a11628f55a4df523b3ef84604051610bbb91906111e7565b60405180910390a360019050610bd1565b600090505b92915050565b6000808211610be557600080fd5b8183610bf19190611301565b905092915050565b600082600660003373ffffffffffffffffffffffffffffffffffffffff1673ffffffffffffffffffffffffffffffffffffffff16815260200190815260200160002060008673ffffffffffffffffffffffffffffffffffffffff1673ffffffffffffffffffffffffffffffffffffffff168152602001908152602001600020819055507f8c5be1e5ebec7d5bd14f71427d1e84f3dd0314c0f7b2291e5b200ac8c7c3b925338585604051610caf93929190611127565b60405180910390a18373ffffffffffffffffffffffffffffffffffffffff1663bde6312c338530866040518563ffffffff1660e01b8152600401610cf6949392919061115e565b600060405180830381600087803b158015610d1057600080fd5b505af1158015610d24573d6000803e3d6000fd5b50505050600190509392505050565b60008183610d419190611332565b90506000831480610d5c5750818382610d5a9190611301565b145b610d6557600080fd5b92915050565b6000600660008473ffffffffffffffffffffffffffffffffffffffff1673ffffffffffffffffffffffffffffffffffffffff16815260200190815260200160002060008373ffffffffffffffffffffffffffffffffffffffff1673ffffffffffffffffffffffffffffffffffffffff16815260200190815260200160002054905092915050565b60008183610e0091906112ab565b905082811015610e0f57600080fd5b92915050565b6000610e28610e2384611242565b61121d565b905082815260208101848484011115610e4457610e4361157b565b5b610e4f848285611415565b509392505050565b600081359050610e668161159b565b92915050565b600082601f830112610e8157610e80611576565b5b8135610e91848260208601610e15565b91505092915050565b600081359050610ea9816115b2565b92915050565b600060208284031215610ec557610ec4611585565b5b6000610ed384828501610e57565b91505092915050565b60008060408385031215610ef357610ef2611585565b5b6000610f0185828601610e57565b9250506020610f1285828601610e57565b9150509250929050565b600080600060608486031215610f3557610f34611585565b5b6000610f4386828701610e57565b9350506020610f5486828701610e57565b9250506040610f6586828701610e9a565b9150509250925092565b60008060408385031215610f8657610f85611585565b5b6000610f9485828601610e57565b9250506020610fa585828601610e9a565b9150509250929050565b600080600060608486031215610fc857610fc7611585565b5b6000610fd686828701610e57565b9350506020610fe786828701610e9a565b925050604084013567ffffffffffffffff81111561100857611007611580565b5b61101486828701610e6c565b9150509250925092565b6000806040838503121561103557611034611585565b5b600061104385828601610e9a565b925050602061105485828601610e9a565b9150509250929050565b611067816113c0565b82525050565b611076816113d2565b82525050565b600061108782611273565b6110918185611289565b93506110a1818560208601611424565b6110aa8161158a565b840191505092915050565b60006110c08261127e565b6110ca818561129a565b93506110da818560208601611424565b6110e38161158a565b840191505092915050565b6110f7816113fe565b82525050565b61110681611408565b82525050565b6000602082019050611121600083018461105e565b92915050565b600060608201905061113c600083018661105e565b611149602083018561105e565b61115660408301846110ee565b949350505050565b6000608082019050611173600083018761105e565b61118060208301866110ee565b61118d604083018561105e565b818103606083015261119f818461107c565b905095945050505050565b60006020820190506111bf600083018461106d565b92915050565b600060208201905081810360008301526111df81846110b5565b905092915050565b60006020820190506111fc60008301846110ee565b92915050565b600060208201905061121760008301846110fd565b92915050565b6000611227611238565b90506112338282611489565b919050565b6000604051905090565b600067ffffffffffffffff82111561125d5761125c611547565b5b6112668261158a565b9050602081019050919050565b600081519050919050565b600081519050919050565b600082825260208201905092915050565b600082825260208201905092915050565b60006112b6826113fe565b91506112c1836113fe565b9250827fffffffffffffffffffffffffffffffffffffffffffffffffffffffffffffffff038211156112f6576112f56114ba565b5b828201905092915050565b600061130c826113fe565b9150611317836113fe565b925082611327576113266114e9565b5b828204905092915050565b600061133d826113fe565b9150611348836113fe565b9250817fffffffffffffffffffffffffffffffffffffffffffffffffffffffffffffffff0483118215151615611381576113806114ba565b5b828202905092915050565b6000611397826113fe565b91506113a2836113fe565b9250828210156113b5576113b46114ba565b5b828203905092915050565b60006113cb826113de565b9050919050565b60008115159050919050565b600073ffffffffffffffffffffffffffffffffffffffff82169050919050565b6000819050919050565b600060ff82169050919050565b82818337600083830152505050565b60005b83811015611442578082015181840152602081019050611427565b83811115611451576000848401525b50505050565b6000600282049050600182168061146f57607f821691505b6020821081141561148357611482611518565b5b50919050565b6114928261158a565b810181811067ffffffffffffffff821117156114b1576114b0611547565b5b80604052505050565b7f4e487b7100000000000000000000000000000000000000000000000000000000600052601160045260246000fd5b7f4e487b7100000000000000000000000000000000000000000000000000000000600052601260045260246000fd5b7f4e487b7100000000000000000000000000000000000000000000000000000000600052602260045260246000fd5b7f4e487b7100000000000000000000000000000000000000000000000000000000600052604160045260246000fd5b600080fd5b600080fd5b600080fd5b600080fd5b6000601f19601f8301169050919050565b6115a4816113c0565b81146115af57600080fd5b50565b6115bb816113fe565b81146115c657600080fd5b5056fea2646970667358221220272b2ac0626cfef30bb0006c812e1ebe5bf0c5b26ec4f0529ac5e547c5338b2c64736f6c63430008060033",
  "immutableReferences": {},
  "source": "// SPDX-License-Identifier: MIT\n\npragma solidity >=0.5.0 <0.9.0;\n\n\nabstract contract ERC20Interface {\n    function totalSupply() virtual public view returns(uint);\n    function balanceOf(address tokenOwner) virtual public view returns(uint balance);\n    function transfer(address to, uint tokens) virtual public returns(bool success);\n    function transferFrom(address from, address to, uint tokens) virtual public returns(bool success);\n    function allowance(address tokenOwner, address spender) virtual public view returns(uint remaining);\n    function approve(address spender, uint tokens) virtual public returns(bool sucess);\n    \n    event Transfer(address indexed from, address indexed to, uint tokens);\n    event Approval(address tokenOwner, address spender, uint tokens);\n}\n\nabstract contract AppoveAndCallFallBack {\n    function recieveApproval(address from, uint tokens, address token, bytes memory data) virtual public;\n}\n\n\ncontract Owned {\n    \n    address public tokenOwner;\n\n    constructor() {\n        tokenOwner = msg.sender;\n    }\n\n    modifier onlyOwner {\n        require(msg.sender == tokenOwner);\n        _;\n    }\n\n}\n\ncontract SafeMath {\n    function safeAdd(uint a, uint b) public pure returns (uint c) {\n        c = a + b;\n        require(c >= a);\n    }\n    function safeSub(uint a, uint b) public pure returns (uint c) {\n        require(b <= a);\n        c = a - b;\n    }\n    function safeMul(uint a, uint b) public pure returns (uint c) {\n        c = a * b;\n        require(a == 0 || c / a == b);\n    }\n    function safeDiv(uint a, uint b) public pure returns (uint c) {\n        require(b > 0);\n        c = a / b;\n    }\n}\n\ncontract PALToken is ERC20Interface,Owned, SafeMath {\n    string public symbol;\n    string public name;\n    uint8 public decimals;\n    uint public _totalSupply;\n    \n    mapping(address=>uint) balances;\n    mapping(address => mapping(address=>uint)) allowed;\n    \n    constructor() {\n        symbol = \"PAL\";\n        name =\"PALToken\";\n        decimals = 0;\n        _totalSupply = 100000000;\n        \n        balances[msg.sender] = _totalSupply;        \n    }\n\n    function totalSupply() public override view returns (uint) {\n        return _totalSupply - balances[address(0)];\n    }\n\n    //Get the balance of account token owner\n    function balanceOf(address tokenOwner) public override view returns(uint balance) {\n        return balances[tokenOwner];\n    }\n\n    //Transfer the balance from token owners account to to account\n    function transfer(address to, uint tokens) public override returns(bool success) {\n\n        if(balances[msg.sender] >= tokens && tokens > 0) {\n            balances[msg.sender] = safeSub(balances[msg.sender],tokens);\n            balances[to] = safeAdd(balances[to], tokens);\n            emit Transfer(msg.sender, to, tokens);\n            return true;\n        } else {\n            return false;\n        }\n    }\n\n    //Token owner can approve for spender to transer tokens from his account\n    function approve(address spender, uint tokens) public override returns(bool success) {\n        allowed[msg.sender][spender] = tokens;\n        emit Approval(msg.sender, spender, tokens);\n        return true;\n    }\n\n    function transferFrom(address from,address to, uint tokens) public override returns(bool success) {\n        if(balances[from] >= tokens && allowed[from][msg.sender] >= tokens && tokens > 0) {\n            balances[from] = safeSub(balances[from], tokens);\n            allowed[from][msg.sender] = safeSub(allowed[from][msg.sender],tokens);\n            balances[to] = safeAdd(balances[to], tokens);\n            emit Transfer(from, to, tokens);\n            return true;\n        } else {\n            return false;\n        }\n    }\n\n    //Returns the amount of tokens approved by the owner\n    function allowance(address tokenOwner, address spender) public override view returns (uint remaining) {\n        return allowed[tokenOwner][spender];\n    }\n\n\n    function approveAndCall(address spender, uint tokens, bytes memory data) public returns (bool success) {\n        allowed[msg.sender][spender] = tokens;\n        emit Approval(msg.sender, spender, tokens);\n        AppoveAndCallFallBack(spender).recieveApproval(msg.sender,tokens,address(this),data);\n        return true;\n    }\n}    ",
  "sourcePath": "/var/www/html/blaze-coin/test-contract/contracts/PALToken.sol",
  "compiler": {
    "name": "solc",
    "version": "0.8.6+commit.11564f7e.Emscripten.clang"
  },
  "schemaVersion": "3.4.1",
  "updatedAt": "2021-08-06T16:38:22.373Z",
  "devdoc": {
    "kind": "dev",
    "methods": {},
    "version": 1
  },
  "userdoc": {
    "kind": "user",
    "methods": {},
    "version": 1
  }
}