{
  "contractName": "SafeMath",
  "abi": [
    {
      "inputs": [
        {
          "internalType": "uint256",
          "name": "a",
          "type": "uint256"
        },
        {
          "internalType": "uint256",
          "name": "b",
          "type": "uint256"
        }
      ],
      "name": "safeAdd",
      "outputs": [
        {
          "internalType": "uint256",
          "name": "c",
          "type": "uint256"
        }
      ],
      "stateMutability": "pure",
      "type": "function"
    },
    {
      "inputs": [
        {
          "internalType": "uint256",
          "name": "a",
          "type": "uint256"
        },
        {
          "internalType": "uint256",
          "name": "b",
          "type": "uint256"
        }
      ],
      "name": "safeSub",
      "outputs": [
        {
          "internalType": "uint256",
          "name": "c",
          "type": "uint256"
        }
      ],
      "stateMutability": "pure",
      "type": "function"
    },
    {
      "inputs": [
        {
          "internalType": "uint256",
          "name": "a",
          "type": "uint256"
        },
        {
          "internalType": "uint256",
          "name": "b",
          "type": "uint256"
        }
      ],
      "name": "safeMul",
      "outputs": [
        {
          "internalType": "uint256",
          "name": "c",
          "type": "uint256"
        }
      ],
      "stateMutability": "pure",
      "type": "function"
    },
    {
      "inputs": [
        {
          "internalType": "uint256",
          "name": "a",
          "type": "uint256"
        },
        {
          "internalType": "uint256",
          "name": "b",
          "type": "uint256"
        }
      ],
      "name": "safeDiv",
      "outputs": [
        {
          "internalType": "uint256",
          "name": "c",
          "type": "uint256"
        }
      ],
      "stateMutability": "pure",
      "type": "function"
    }
  ],
  "bytecode": "0x608060405234801561001057600080fd5b506103ff806100206000396000f3fe608060405234801561001057600080fd5b506004361061004c5760003560e01c8063a293d1e814610051578063b5931f7c14610081578063d05c78da146100b1578063e6cb9013146100e1575b600080fd5b61006b600480360381019061006691906101c6565b610111565b6040516100789190610215565b60405180910390f35b61009b600480360381019061009691906101c6565b610134565b6040516100a89190610215565b60405180910390f35b6100cb60048036038101906100c691906101c6565b610156565b6040516100d89190610215565b60405180910390f35b6100fb60048036038101906100f691906101c6565b61018e565b6040516101089190610215565b60405180910390f35b60008282111561012057600080fd5b818361012c9190610311565b905092915050565b600080821161014257600080fd5b818361014e9190610286565b905092915050565b6000818361016491906102b7565b9050600083148061017f575081838261017d9190610286565b145b61018857600080fd5b92915050565b6000818361019c9190610230565b9050828110156101ab57600080fd5b92915050565b6000813590506101c0816103b2565b92915050565b600080604083850312156101dd576101dc6103ad565b5b60006101eb858286016101b1565b92505060206101fc858286016101b1565b9150509250929050565b61020f81610345565b82525050565b600060208201905061022a6000830184610206565b92915050565b600061023b82610345565b915061024683610345565b9250827fffffffffffffffffffffffffffffffffffffffffffffffffffffffffffffffff0382111561027b5761027a61034f565b5b828201905092915050565b600061029182610345565b915061029c83610345565b9250826102ac576102ab61037e565b5b828204905092915050565b60006102c282610345565b91506102cd83610345565b9250817fffffffffffffffffffffffffffffffffffffffffffffffffffffffffffffffff04831182151516156103065761030561034f565b5b828202905092915050565b600061031c82610345565b915061032783610345565b92508282101561033a5761033961034f565b5b828203905092915050565b6000819050919050565b7f4e487b7100000000000000000000000000000000000000000000000000000000600052601160045260246000fd5b7f4e487b7100000000000000000000000000000000000000000000000000000000600052601260045260246000fd5b600080fd5b6103bb81610345565b81146103c657600080fd5b5056fea26469706673582212203e4bc403dcbce1199cc2d8ca5dae36060386e9806e97d6a30ec5904b825e9cde64736f6c63430008060033",
  "immutableReferences": {},
  "source": "// SPDX-License-Identifier: MIT\n\npragma solidity >=0.5.0 <0.9.0;\n\n\nabstract contract ERC20Interface {\n    function totalSupply() virtual public view returns(uint);\n    function balanceOf(address tokenOwner) virtual public view returns(uint balance);\n    function transfer(address to, uint tokens) virtual public returns(bool success);\n    function transferFrom(address from, address to, uint tokens) virtual public returns(bool success);\n    function allowance(address tokenOwner, address spender) virtual public view returns(uint remaining);\n    function approve(address spender, uint tokens) virtual public returns(bool sucess);\n    \n    event Transfer(address indexed from, address indexed to, uint tokens);\n    event Approval(address tokenOwner, address spender, uint tokens);\n}\n\nabstract contract AppoveAndCallFallBack {\n    function recieveApproval(address from, uint tokens, address token, bytes memory data) virtual public;\n}\n\n\ncontract Owned {\n    \n    address public tokenOwner;\n\n    constructor() {\n        tokenOwner = msg.sender;\n    }\n\n    modifier onlyOwner {\n        require(msg.sender == tokenOwner);\n        _;\n    }\n\n}\n\ncontract SafeMath {\n    function safeAdd(uint a, uint b) public pure returns (uint c) {\n        c = a + b;\n        require(c >= a);\n    }\n    function safeSub(uint a, uint b) public pure returns (uint c) {\n        require(b <= a);\n        c = a - b;\n    }\n    function safeMul(uint a, uint b) public pure returns (uint c) {\n        c = a * b;\n        require(a == 0 || c / a == b);\n    }\n    function safeDiv(uint a, uint b) public pure returns (uint c) {\n        require(b > 0);\n        c = a / b;\n    }\n}\n\ncontract PALToken is ERC20Interface,Owned, SafeMath {\n    string public symbol;\n    string public name;\n    uint8 public decimals;\n    uint public _totalSupply;\n    \n    mapping(address=>uint) balances;\n    mapping(address => mapping(address=>uint)) allowed;\n    \n    constructor() {\n        symbol = \"PAL\";\n        name =\"PALToken\";\n        decimals = 0;\n        _totalSupply = 100000000;\n        \n        balances[msg.sender] = _totalSupply;        \n    }\n\n    function totalSupply() public override view returns (uint) {\n        return _totalSupply - balances[address(0)];\n    }\n\n    //Get the balance of account token owner\n    function balanceOf(address tokenOwner) public override view returns(uint balance) {\n        return balances[tokenOwner];\n    }\n\n    //Transfer the balance from token owners account to to account\n    function transfer(address to, uint tokens) public override returns(bool success) {\n\n        if(balances[msg.sender] >= tokens && tokens > 0) {\n            balances[msg.sender] = safeSub(balances[msg.sender],tokens);\n            balances[to] = safeAdd(balances[to], tokens);\n            emit Transfer(msg.sender, to, tokens);\n            return true;\n        } else {\n            return false;\n        }\n    }\n\n    //Token owner can approve for spender to transer tokens from his account\n    function approve(address spender, uint tokens) public override returns(bool success) {\n        allowed[msg.sender][spender] = tokens;\n        emit Approval(msg.sender, spender, tokens);\n        return true;\n    }\n\n    function transferFrom(address from,address to, uint tokens) public override returns(bool success) {\n        if(balances[from] >= tokens && allowed[from][msg.sender] >= tokens && tokens > 0) {\n            balances[from] = safeSub(balances[from], tokens);\n            allowed[from][msg.sender] = safeSub(allowed[from][msg.sender],tokens);\n            balances[to] = safeAdd(balances[to], tokens);\n            emit Transfer(from, to, tokens);\n            return true;\n        } else {\n            return false;\n        }\n    }\n\n    //Returns the amount of tokens approved by the owner\n    function allowance(address tokenOwner, address spender) public override view returns (uint remaining) {\n        return allowed[tokenOwner][spender];\n    }\n\n\n    function approveAndCall(address spender, uint tokens, bytes memory data) public returns (bool success) {\n        allowed[msg.sender][spender] = tokens;\n        emit Approval(msg.sender, spender, tokens);\n        AppoveAndCallFallBack(spender).recieveApproval(msg.sender,tokens,address(this),data);\n        return true;\n    }\n}    ",
  "sourcePath": "/var/www/html/blaze-coin/test-contract/contracts/PALToken.sol",
  "compiler": {
    "name": "solc",
    "version": "0.8.6+commit.11564f7e.Emscripten.clang"
  },
  "schemaVersion": "3.4.1",
  "updatedAt": "2021-08-06T16:38:22.377Z",
  "devdoc": {
    "kind": "dev",
    "methods": {},
    "version": 1
  },
  "userdoc": {
    "kind": "user",
    "methods": {},
    "version": 1
  }
}